{
  "_format": "hh-sol-artifact-1",
  "contractName": "AirdropFactory",
  "sourceName": "contracts/AirdropFactory.sol",
  "abi": [
    {
      "anonymous": false,
      "inputs": [
        {
          "indexed": true,
          "internalType": "address",
          "name": "previousOwner",
          "type": "address"
        },
        {
          "indexed": true,
          "internalType": "address",
          "name": "newOwner",
          "type": "address"
        }
      ],
      "name": "OwnershipTransferred",
      "type": "event"
    },
    {
      "anonymous": false,
      "inputs": [
        {
          "indexed": false,
          "internalType": "address",
          "name": "",
          "type": "address"
        },
        {
          "indexed": false,
          "internalType": "address",
          "name": "",
          "type": "address"
        }
      ],
      "name": "TokenCreated",
      "type": "event"
    },
    {
      "anonymous": false,
      "inputs": [
        {
          "indexed": false,
          "internalType": "uint256[]",
          "name": "tokenIds",
          "type": "uint256[]"
        },
        {
          "indexed": true,
          "internalType": "address[]",
          "name": "minters",
          "type": "address[]"
        }
      ],
      "name": "TokensMinted",
      "type": "event"
    },
    {
      "inputs": [
        {
          "internalType": "address",
          "name": "tokenAddress",
          "type": "address"
        },
        {
          "internalType": "address[]",
          "name": "recipients",
          "type": "address[]"
        }
      ],
      "name": "bulkMintERC721",
      "outputs": [],
      "stateMutability": "nonpayable",
      "type": "function"
    },
    {
      "inputs": [
        {
          "internalType": "address",
          "name": "tokenAddress",
          "type": "address"
        },
        {
          "internalType": "address[]",
          "name": "recipients",
          "type": "address[]"
        },
        {
          "internalType": "uint256",
          "name": "amount",
          "type": "uint256"
        }
      ],
      "name": "bulkTranferERC20",
      "outputs": [],
      "stateMutability": "nonpayable",
      "type": "function"
    },
    {
      "inputs": [
        {
          "internalType": "address",
          "name": "",
          "type": "address"
        },
        {
          "internalType": "uint256",
          "name": "",
          "type": "uint256"
        }
      ],
      "name": "collections",
      "outputs": [
        {
          "internalType": "address",
          "name": "",
          "type": "address"
        }
      ],
      "stateMutability": "view",
      "type": "function"
    },
    {
      "inputs": [
        {
          "internalType": "string",
          "name": "name",
          "type": "string"
        },
        {
          "internalType": "string",
          "name": "symbol",
          "type": "string"
        }
      ],
      "name": "createToken",
      "outputs": [],
      "stateMutability": "nonpayable",
      "type": "function"
    },
    {
      "inputs": [],
      "name": "owner",
      "outputs": [
        {
          "internalType": "address",
          "name": "",
          "type": "address"
        }
      ],
      "stateMutability": "view",
      "type": "function"
    },
    {
      "inputs": [],
      "name": "renounceOwnership",
      "outputs": [],
      "stateMutability": "nonpayable",
      "type": "function"
    },
    {
      "inputs": [
        {
          "internalType": "address",
          "name": "newOwner",
          "type": "address"
        }
      ],
      "name": "transferOwnership",
      "outputs": [],
      "stateMutability": "nonpayable",
      "type": "function"
    }
  ],
  "bytecode": "0x608060405234801561001057600080fd5b5061002d61002261003260201b60201c565b61003a60201b60201c565b6100fe565b600033905090565b60008060009054906101000a900473ffffffffffffffffffffffffffffffffffffffff169050816000806101000a81548173ffffffffffffffffffffffffffffffffffffffff021916908373ffffffffffffffffffffffffffffffffffffffff1602179055508173ffffffffffffffffffffffffffffffffffffffff168173ffffffffffffffffffffffffffffffffffffffff167f8be0079c531659141344cd1fd0a4f28419497f9722a3daafe3b4186f6b6457e060405160405180910390a35050565b613d9b8061010d6000396000f3fe60806040523480156200001157600080fd5b5060043610620000885760003560e01c8063715018a61162000063578063715018a614620001035780638da5cb5b146200010f578063bcbc49251462000131578063f2fde38b14620001515762000088565b80632f2f2d56146200008d578063335232f114620000ad57806349a764cd14620000cd575b600080fd5b620000ab6004803603810190620000a5919062000bdd565b62000171565b005b620000cb6004803603810190620000c5919062000afc565b62000290565b005b620000eb6004803603810190620000e5919062000b70565b62000493565b604051620000fa919062000e98565b60405180910390f35b6200010d620004e2565b005b62000119620004fa565b60405162000128919062000e98565b60405180910390f35b6200014f600480360381019062000149919062000a9e565b62000523565b005b6200016f600480360381019062000169919062000a72565b62000755565b005b60008282604051620001839062000949565b6200019092919062000f43565b604051809103906000f080158015620001ad573d6000803e3d6000fd5b509050600160003373ffffffffffffffffffffffffffffffffffffffff1673ffffffffffffffffffffffffffffffffffffffff168152602001908152602001600020819080600181540180825580915050600190039060005260206000200160009091909190916101000a81548173ffffffffffffffffffffffffffffffffffffffff021916908373ffffffffffffffffffffffffffffffffffffffff1602179055507fd5f9bdf12adf29dab0248c349842c3822d53ae2bb4f36352f301630d018c813933826040516200028392919062000eb5565b60405180910390a1505050565b6000620002aa8484905083620007e090919063ffffffff16565b9050808573ffffffffffffffffffffffffffffffffffffffff166370a08231336040518263ffffffff1660e01b8152600401620002e8919062000e98565b60206040518083038186803b1580156200030157600080fd5b505afa15801562000316573d6000803e3d6000fd5b505050506040513d601f19601f820116820180604052508101906200033c919062000c50565b101562000380576040517f08c379a0000000000000000000000000000000000000000000000000000000008152600401620003779062000fa0565b60405180910390fd5b60005b848490508110156200048b578573ffffffffffffffffffffffffffffffffffffffff166323b872dd33878785818110620003e6577f4e487b7100000000000000000000000000000000000000000000000000000000600052603260045260246000fd5b9050602002016020810190620003fd919062000a72565b866040518463ffffffff1660e01b81526004016200041e9392919062000ee2565b602060405180830381600087803b1580156200043957600080fd5b505af11580156200044e573d6000803e3d6000fd5b505050506040513d601f19601f8201168201806040525081019062000474919062000bb1565b5080806200048290620011f9565b91505062000383565b505050505050565b60016020528160005260406000208181548110620004b057600080fd5b906000526020600020016000915091509054906101000a900473ffffffffffffffffffffffffffffffffffffffff1681565b620004ec620007f8565b620004f860006200087d565b565b60008060009054906101000a900473ffffffffffffffffffffffffffffffffffffffff16905090565b60008282905067ffffffffffffffff81111562000569577f4e487b7100000000000000000000000000000000000000000000000000000000600052604160045260246000fd5b604051908082528060200260200182016040528015620005985781602001602082028036833780820191505090505b50905060005b83839050811015620006ed5760008573ffffffffffffffffffffffffffffffffffffffff166340d097c386868581811062000602577f4e487b7100000000000000000000000000000000000000000000000000000000600052603260045260246000fd5b905060200201602081019062000619919062000a72565b6040518263ffffffff1660e01b815260040162000637919062000e98565b602060405180830381600087803b1580156200065257600080fd5b505af115801562000667573d6000803e3d6000fd5b505050506040513d601f19601f820116820180604052508101906200068d919062000c50565b905080838381518110620006ca577f4e487b7100000000000000000000000000000000000000000000000000000000600052603260045260246000fd5b602002602001018181525050508080620006e490620011f9565b9150506200059e565b5082829050815114156200074f5782826040516200070d92919062000e7d565b60405180910390207fa57a5c708cf7ddf52db91fd1385ed91ce895acf24cc7c3a1421ac885dfa66eb28260405162000746919062000f1f565b60405180910390a25b50505050565b6200075f620007f8565b600073ffffffffffffffffffffffffffffffffffffffff168173ffffffffffffffffffffffffffffffffffffffff161415620007d2576040517f08c379a0000000000000000000000000000000000000000000000000000000008152600401620007c99062000f7e565b60405180910390fd5b620007dd816200087d565b50565b60008183620007f09190620010d3565b905092915050565b6200080262000941565b73ffffffffffffffffffffffffffffffffffffffff1662000822620004fa565b73ffffffffffffffffffffffffffffffffffffffff16146200087b576040517f08c379a0000000000000000000000000000000000000000000000000000000008152600401620008729062000fc2565b60405180910390fd5b565b60008060009054906101000a900473ffffffffffffffffffffffffffffffffffffffff169050816000806101000a81548173ffffffffffffffffffffffffffffffffffffffff021916908373ffffffffffffffffffffffffffffffffffffffff1602179055508173ffffffffffffffffffffffffffffffffffffffff168173ffffffffffffffffffffffffffffffffffffffff167f8be0079c531659141344cd1fd0a4f28419497f9722a3daafe3b4186f6b6457e060405160405180910390a35050565b600033905090565b61299a80620013cc83390190565b60006200096e62000968846200100d565b62000fe4565b9050828152602081018484840111156200098757600080fd5b620009948482856200117e565b509392505050565b600081359050620009ad816200137d565b92915050565b60008083601f840112620009c657600080fd5b8235905067ffffffffffffffff811115620009e057600080fd5b602083019150836020820283011115620009f957600080fd5b9250929050565b60008151905062000a118162001397565b92915050565b600082601f83011262000a2957600080fd5b813562000a3b84826020860162000957565b91505092915050565b60008135905062000a5581620013b1565b92915050565b60008151905062000a6c81620013b1565b92915050565b60006020828403121562000a8557600080fd5b600062000a95848285016200099c565b91505092915050565b60008060006040848603121562000ab457600080fd5b600062000ac4868287016200099c565b935050602084013567ffffffffffffffff81111562000ae257600080fd5b62000af086828701620009b3565b92509250509250925092565b6000806000806060858703121562000b1357600080fd5b600062000b23878288016200099c565b945050602085013567ffffffffffffffff81111562000b4157600080fd5b62000b4f87828801620009b3565b9350935050604062000b648782880162000a44565b91505092959194509250565b6000806040838503121562000b8457600080fd5b600062000b94858286016200099c565b925050602062000ba78582860162000a44565b9150509250929050565b60006020828403121562000bc457600080fd5b600062000bd48482850162000a00565b91505092915050565b6000806040838503121562000bf157600080fd5b600083013567ffffffffffffffff81111562000c0c57600080fd5b62000c1a8582860162000a17565b925050602083013567ffffffffffffffff81111562000c3857600080fd5b62000c468582860162000a17565b9150509250929050565b60006020828403121562000c6357600080fd5b600062000c738482850162000a5b565b91505092915050565b600062000c8a838362000cc1565b60208301905092915050565b600062000ca4838362000e5b565b60208301905092915050565b62000cbb8162001134565b82525050565b62000ccc8162001134565b82525050565b600062000ce083856200108d565b935062000ced8262001043565b8060005b8581101562000d2e5762000d068284620010ba565b62000d12888262000c7c565b975062000d1f8362001073565b92505060018101905062000cf1565b5085925050509392505050565b600062000d48826200105d565b62000d54818562001098565b935062000d61836200104d565b8060005b8381101562000d9857815162000d7c888262000c96565b975062000d898362001080565b92505060018101905062000d65565b5085935050505092915050565b600062000db28262001068565b62000dbe8185620010a9565b935062000dd08185602086016200118d565b62000ddb81620012a5565b840191505092915050565b600062000df5602683620010a9565b915062000e0282620012b6565b604082019050919050565b600062000e1c602283620010a9565b915062000e298262001305565b604082019050919050565b600062000e43602083620010a9565b915062000e508262001354565b602082019050919050565b62000e668162001174565b82525050565b62000e778162001174565b82525050565b600062000e8c82848662000cd2565b91508190509392505050565b600060208201905062000eaf600083018462000cb0565b92915050565b600060408201905062000ecc600083018562000cb0565b62000edb602083018462000cb0565b9392505050565b600060608201905062000ef9600083018662000cb0565b62000f08602083018562000cb0565b62000f17604083018462000e6c565b949350505050565b6000602082019050818103600083015262000f3b818462000d3b565b905092915050565b6000604082019050818103600083015262000f5f818562000da5565b9050818103602083015262000f75818462000da5565b90509392505050565b6000602082019050818103600083015262000f998162000de6565b9050919050565b6000602082019050818103600083015262000fbb8162000e0d565b9050919050565b6000602082019050818103600083015262000fdd8162000e34565b9050919050565b600062000ff062001003565b905062000ffe8282620011c3565b919050565b6000604051905090565b600067ffffffffffffffff8211156200102b576200102a62001276565b5b6200103682620012a5565b9050602081019050919050565b6000819050919050565b6000819050602082019050919050565b600081519050919050565b600081519050919050565b6000602082019050919050565b6000602082019050919050565b600081905092915050565b600082825260208201905092915050565b600082825260208201905092915050565b6000620010cb60208401846200099c565b905092915050565b6000620010e08262001174565b9150620010ed8362001174565b9250817fffffffffffffffffffffffffffffffffffffffffffffffffffffffffffffffff048311821515161562001129576200112862001247565b5b828202905092915050565b6000620011418262001154565b9050919050565b60008115159050919050565b600073ffffffffffffffffffffffffffffffffffffffff82169050919050565b6000819050919050565b82818337600083830152505050565b60005b83811015620011ad57808201518184015260208101905062001190565b83811115620011bd576000848401525b50505050565b620011ce82620012a5565b810181811067ffffffffffffffff82111715620011f057620011ef62001276565b5b80604052505050565b6000620012068262001174565b91507fffffffffffffffffffffffffffffffffffffffffffffffffffffffffffffffff8214156200123c576200123b62001247565b5b600182019050919050565b7f4e487b7100000000000000000000000000000000000000000000000000000000600052601160045260246000fd5b7f4e487b7100000000000000000000000000000000000000000000000000000000600052604160045260246000fd5b6000601f19601f8301169050919050565b7f4f776e61626c653a206e6577206f776e657220697320746865207a65726f206160008201527f6464726573730000000000000000000000000000000000000000000000000000602082015250565b7f596f7520646f6e277420686176652073756666696369656e742062616c616e6360008201527f6521000000000000000000000000000000000000000000000000000000000000602082015250565b7f4f776e61626c653a2063616c6c6572206973206e6f7420746865206f776e6572600082015250565b620013888162001134565b81146200139457600080fd5b50565b620013a28162001148565b8114620013ae57600080fd5b50565b620013bc8162001174565b8114620013c857600080fd5b5056fe60806040523480156200001157600080fd5b506040516200299a3803806200299a833981810160405281019062000037919062000197565b818181600090805190602001906200005192919062000075565b5080600190805190602001906200006a92919062000075565b50505050506200037a565b82805462000083906200029f565b90600052602060002090601f016020900481019282620000a75760008555620000f3565b82601f10620000c257805160ff1916838001178555620000f3565b82800160010185558215620000f3579182015b82811115620000f2578251825591602001919060010190620000d5565b5b50905062000102919062000106565b5090565b5b808211156200012157600081600090555060010162000107565b5090565b60006200013c620001368462000233565b6200020a565b9050828152602081018484840111156200015557600080fd5b6200016284828562000269565b509392505050565b600082601f8301126200017c57600080fd5b81516200018e84826020860162000125565b91505092915050565b60008060408385031215620001ab57600080fd5b600083015167ffffffffffffffff811115620001c657600080fd5b620001d4858286016200016a565b925050602083015167ffffffffffffffff811115620001f257600080fd5b62000200858286016200016a565b9150509250929050565b60006200021662000229565b9050620002248282620002d5565b919050565b6000604051905090565b600067ffffffffffffffff8211156200025157620002506200033a565b5b6200025c8262000369565b9050602081019050919050565b60005b83811015620002895780820151818401526020810190506200026c565b8381111562000299576000848401525b50505050565b60006002820490506001821680620002b857607f821691505b60208210811415620002cf57620002ce6200030b565b5b50919050565b620002e08262000369565b810181811067ffffffffffffffff821117156200030257620003016200033a565b5b80604052505050565b7f4e487b7100000000000000000000000000000000000000000000000000000000600052602260045260246000fd5b7f4e487b7100000000000000000000000000000000000000000000000000000000600052604160045260246000fd5b6000601f19601f8301169050919050565b612610806200038a6000396000f3fe608060405234801561001057600080fd5b50600436106100ea5760003560e01c80636352211e1161008c578063a22cb46511610066578063a22cb4651461026f578063b88d4fde1461028b578063c87b56dd146102a7578063e985e9c5146102d7576100ea565b80636352211e146101f157806370a082311461022157806395d89b4114610251576100ea565b8063095ea7b3116100c8578063095ea7b31461016d57806323b872dd1461018957806340d097c3146101a557806342842e0e146101d5576100ea565b806301ffc9a7146100ef57806306fdde031461011f578063081812fc1461013d575b600080fd5b61010960048036038101906101049190611b81565b610307565b6040516101169190611ed8565b60405180910390f35b6101276103e9565b6040516101349190611ef3565b60405180910390f35b61015760048036038101906101529190611bd3565b61047b565b6040516101649190611e71565b60405180910390f35b61018760048036038101906101829190611b45565b6104c1565b005b6101a3600480360381019061019e9190611a3f565b6105d9565b005b6101bf60048036038101906101ba91906119da565b610639565b6040516101cc9190612075565b60405180910390f35b6101ef60048036038101906101ea9190611a3f565b610665565b005b61020b60048036038101906102069190611bd3565b610685565b6040516102189190611e71565b60405180910390f35b61023b600480360381019061023691906119da565b61070c565b6040516102489190612075565b60405180910390f35b6102596107c4565b6040516102669190611ef3565b60405180910390f35b61028960048036038101906102849190611b09565b610856565b005b6102a560048036038101906102a09190611a8e565b61086c565b005b6102c160048036038101906102bc9190611bd3565b6108ce565b6040516102ce9190611ef3565b60405180910390f35b6102f160048036038101906102ec9190611a03565b610936565b6040516102fe9190611ed8565b60405180910390f35b60007f80ac58cd000000000000000000000000000000000000000000000000000000007bffffffffffffffffffffffffffffffffffffffffffffffffffffffff1916827bffffffffffffffffffffffffffffffffffffffffffffffffffffffff191614806103d257507f5b5e139f000000000000000000000000000000000000000000000000000000007bffffffffffffffffffffffffffffffffffffffffffffffffffffffff1916827bffffffffffffffffffffffffffffffffffffffffffffffffffffffff1916145b806103e257506103e1826109ca565b5b9050919050565b6060600080546103f8906121df565b80601f0160208091040260200160405190810160405280929190818152602001828054610424906121df565b80156104715780601f1061044657610100808354040283529160200191610471565b820191906000526020600020905b81548152906001019060200180831161045457829003601f168201915b5050505050905090565b600061048682610a34565b6004600083815260200190815260200160002060009054906101000a900473ffffffffffffffffffffffffffffffffffffffff169050919050565b60006104cc82610685565b90508073ffffffffffffffffffffffffffffffffffffffff168373ffffffffffffffffffffffffffffffffffffffff16141561053d576040517f08c379a000000000000000000000000000000000000000000000000000000000815260040161053490612035565b60405180910390fd5b8073ffffffffffffffffffffffffffffffffffffffff1661055c610a7f565b73ffffffffffffffffffffffffffffffffffffffff16148061058b575061058a81610585610a7f565b610936565b5b6105ca576040517f08c379a00000000000000000000000000000000000000000000000000000000081526004016105c190612055565b60405180910390fd5b6105d48383610a87565b505050565b6105ea6105e4610a7f565b82610b40565b610629576040517f08c379a000000000000000000000000000000000000000000000000000000000815260040161062090611f15565b60405180910390fd5b610634838383610bd5565b505050565b6000806106466006610ecf565b90506106526006610edd565b61065c8382610ef3565b80915050919050565b6106808383836040518060200160405280600081525061086c565b505050565b60008061069183610f11565b9050600073ffffffffffffffffffffffffffffffffffffffff168173ffffffffffffffffffffffffffffffffffffffff161415610703576040517f08c379a00000000000000000000000000000000000000000000000000000000081526004016106fa90612015565b60405180910390fd5b80915050919050565b60008073ffffffffffffffffffffffffffffffffffffffff168273ffffffffffffffffffffffffffffffffffffffff16141561077d576040517f08c379a000000000000000000000000000000000000000000000000000000000815260040161077490611fd5565b60405180910390fd5b600360008373ffffffffffffffffffffffffffffffffffffffff1673ffffffffffffffffffffffffffffffffffffffff168152602001908152602001600020549050919050565b6060600180546107d3906121df565b80601f01602080910402602001604051908101604052809291908181526020018280546107ff906121df565b801561084c5780601f106108215761010080835404028352916020019161084c565b820191906000526020600020905b81548152906001019060200180831161082f57829003601f168201915b5050505050905090565b610868610861610a7f565b8383610f4e565b5050565b61087d610877610a7f565b83610b40565b6108bc576040517f08c379a00000000000000000000000000000000000000000000000000000000081526004016108b390611f15565b60405180910390fd5b6108c8848484846110bb565b50505050565b60606108d982610a34565b60006108e3611117565b90506000815111610903576040518060200160405280600081525061092e565b8061090d8461112e565b60405160200161091e929190611e4d565b6040516020818303038152906040525b915050919050565b6000600560008473ffffffffffffffffffffffffffffffffffffffff1673ffffffffffffffffffffffffffffffffffffffff16815260200190815260200160002060008373ffffffffffffffffffffffffffffffffffffffff1673ffffffffffffffffffffffffffffffffffffffff16815260200190815260200160002060009054906101000a900460ff16905092915050565b60007f01ffc9a7000000000000000000000000000000000000000000000000000000007bffffffffffffffffffffffffffffffffffffffffffffffffffffffff1916827bffffffffffffffffffffffffffffffffffffffffffffffffffffffff1916149050919050565b610a3d81611252565b610a7c576040517f08c379a0000000000000000000000000000000000000000000000000000000008152600401610a7390612015565b60405180910390fd5b50565b600033905090565b816004600083815260200190815260200160002060006101000a81548173ffffffffffffffffffffffffffffffffffffffff021916908373ffffffffffffffffffffffffffffffffffffffff160217905550808273ffffffffffffffffffffffffffffffffffffffff16610afa83610685565b73ffffffffffffffffffffffffffffffffffffffff167f8c5be1e5ebec7d5bd14f71427d1e84f3dd0314c0f7b2291e5b200ac8c7c3b92560405160405180910390a45050565b600080610b4c83610685565b90508073ffffffffffffffffffffffffffffffffffffffff168473ffffffffffffffffffffffffffffffffffffffff161480610b8e5750610b8d8185610936565b5b80610bcc57508373ffffffffffffffffffffffffffffffffffffffff16610bb48461047b565b73ffffffffffffffffffffffffffffffffffffffff16145b91505092915050565b8273ffffffffffffffffffffffffffffffffffffffff16610bf582610685565b73ffffffffffffffffffffffffffffffffffffffff1614610c4b576040517f08c379a0000000000000000000000000000000000000000000000000000000008152600401610c4290611f55565b60405180910390fd5b600073ffffffffffffffffffffffffffffffffffffffff168273ffffffffffffffffffffffffffffffffffffffff161415610cbb576040517f08c379a0000000000000000000000000000000000000000000000000000000008152600401610cb290611f95565b60405180910390fd5b610cc88383836001611293565b8273ffffffffffffffffffffffffffffffffffffffff16610ce882610685565b73ffffffffffffffffffffffffffffffffffffffff1614610d3e576040517f08c379a0000000000000000000000000000000000000000000000000000000008152600401610d3590611f55565b60405180910390fd5b6004600082815260200190815260200160002060006101000a81549073ffffffffffffffffffffffffffffffffffffffff02191690556001600360008573ffffffffffffffffffffffffffffffffffffffff1673ffffffffffffffffffffffffffffffffffffffff168152602001908152602001600020600082825403925050819055506001600360008473ffffffffffffffffffffffffffffffffffffffff1673ffffffffffffffffffffffffffffffffffffffff16815260200190815260200160002060008282540192505081905550816002600083815260200190815260200160002060006101000a81548173ffffffffffffffffffffffffffffffffffffffff021916908373ffffffffffffffffffffffffffffffffffffffff160217905550808273ffffffffffffffffffffffffffffffffffffffff168473ffffffffffffffffffffffffffffffffffffffff167fddf252ad1be2c89b69c2b068fc378daa952ba7f163c4a11628f55a4df523b3ef60405160405180910390a4610eca8383836001611299565b505050565b600081600001549050919050565b6001816000016000828254019250508190555050565b610f0d82826040518060200160405280600081525061129f565b5050565b60006002600083815260200190815260200160002060009054906101000a900473ffffffffffffffffffffffffffffffffffffffff169050919050565b8173ffffffffffffffffffffffffffffffffffffffff168373ffffffffffffffffffffffffffffffffffffffff161415610fbd576040517f08c379a0000000000000000000000000000000000000000000000000000000008152600401610fb490611fb5565b60405180910390fd5b80600560008573ffffffffffffffffffffffffffffffffffffffff1673ffffffffffffffffffffffffffffffffffffffff16815260200190815260200160002060008473ffffffffffffffffffffffffffffffffffffffff1673ffffffffffffffffffffffffffffffffffffffff16815260200190815260200160002060006101000a81548160ff0219169083151502179055508173ffffffffffffffffffffffffffffffffffffffff168373ffffffffffffffffffffffffffffffffffffffff167f17307eab39ab6107e8899845ad3d59bd9653f200f220920489ca2b5937696c31836040516110ae9190611ed8565b60405180910390a3505050565b6110c6848484610bd5565b6110d2848484846112fa565b611111576040517f08c379a000000000000000000000000000000000000000000000000000000000815260040161110890611f35565b60405180910390fd5b50505050565b606060405180602001604052806000815250905090565b60606000600161113d84611491565b01905060008167ffffffffffffffff811115611182577f4e487b7100000000000000000000000000000000000000000000000000000000600052604160045260246000fd5b6040519080825280601f01601f1916602001820160405280156111b45781602001600182028036833780820191505090505b509050600082602001820190505b600115611247578080600190039150507f3031323334353637383961626364656600000000000000000000000000000000600a86061a8153600a8581611231577f4e487b7100000000000000000000000000000000000000000000000000000000600052601260045260246000fd5b049450600085141561124257611247565b6111c2565b819350505050919050565b60008073ffffffffffffffffffffffffffffffffffffffff1661127483610f11565b73ffffffffffffffffffffffffffffffffffffffff1614159050919050565b50505050565b50505050565b6112a983836116c8565b6112b660008484846112fa565b6112f5576040517f08c379a00000000000000000000000000000000000000000000000000000000081526004016112ec90611f35565b60405180910390fd5b505050565b600061131b8473ffffffffffffffffffffffffffffffffffffffff166118e6565b15611484578373ffffffffffffffffffffffffffffffffffffffff1663150b7a02611344610a7f565b8786866040518563ffffffff1660e01b81526004016113669493929190611e8c565b602060405180830381600087803b15801561138057600080fd5b505af19250505080156113b157506040513d601f19601f820116820180604052508101906113ae9190611baa565b60015b611434573d80600081146113e1576040519150601f19603f3d011682016040523d82523d6000602084013e6113e6565b606091505b5060008151141561142c576040517f08c379a000000000000000000000000000000000000000000000000000000000815260040161142390611f35565b60405180910390fd5b805181602001fd5b63150b7a0260e01b7bffffffffffffffffffffffffffffffffffffffffffffffffffffffff1916817bffffffffffffffffffffffffffffffffffffffffffffffffffffffff191614915050611489565b600190505b949350505050565b600080600090507a184f03e93ff9f4daa797ed6e38ed64bf6a1f0100000000000000008310611515577a184f03e93ff9f4daa797ed6e38ed64bf6a1f010000000000000000838161150b577f4e487b7100000000000000000000000000000000000000000000000000000000600052601260045260246000fd5b0492506040810190505b6d04ee2d6d415b85acef81000000008310611578576d04ee2d6d415b85acef8100000000838161156e577f4e487b7100000000000000000000000000000000000000000000000000000000600052601260045260246000fd5b0492506020810190505b662386f26fc1000083106115cd57662386f26fc1000083816115c3577f4e487b7100000000000000000000000000000000000000000000000000000000600052601260045260246000fd5b0492506010810190505b6305f5e100831061161c576305f5e1008381611612577f4e487b7100000000000000000000000000000000000000000000000000000000600052601260045260246000fd5b0492506008810190505b612710831061166757612710838161165d577f4e487b7100000000000000000000000000000000000000000000000000000000600052601260045260246000fd5b0492506004810190505b606483106116b057606483816116a6577f4e487b7100000000000000000000000000000000000000000000000000000000600052601260045260246000fd5b0492506002810190505b600a83106116bf576001810190505b80915050919050565b600073ffffffffffffffffffffffffffffffffffffffff168273ffffffffffffffffffffffffffffffffffffffff161415611738576040517f08c379a000000000000000000000000000000000000000000000000000000000815260040161172f90611ff5565b60405180910390fd5b61174181611252565b15611781576040517f08c379a000000000000000000000000000000000000000000000000000000000815260040161177890611f75565b60405180910390fd5b61178f600083836001611293565b61179881611252565b156117d8576040517f08c379a00000000000000000000000000000000000000000000000000000000081526004016117cf90611f75565b60405180910390fd5b6001600360008473ffffffffffffffffffffffffffffffffffffffff1673ffffffffffffffffffffffffffffffffffffffff16815260200190815260200160002060008282540192505081905550816002600083815260200190815260200160002060006101000a81548173ffffffffffffffffffffffffffffffffffffffff021916908373ffffffffffffffffffffffffffffffffffffffff160217905550808273ffffffffffffffffffffffffffffffffffffffff16600073ffffffffffffffffffffffffffffffffffffffff167fddf252ad1be2c89b69c2b068fc378daa952ba7f163c4a11628f55a4df523b3ef60405160405180910390a46118e2600083836001611299565b5050565b6000808273ffffffffffffffffffffffffffffffffffffffff163b119050919050565b600061191c611917846120b5565b612090565b90508281526020810184848401111561193457600080fd5b61193f84828561219d565b509392505050565b6000813590506119568161257e565b92915050565b60008135905061196b81612595565b92915050565b600081359050611980816125ac565b92915050565b600081519050611995816125ac565b92915050565b600082601f8301126119ac57600080fd5b81356119bc848260208601611909565b91505092915050565b6000813590506119d4816125c3565b92915050565b6000602082840312156119ec57600080fd5b60006119fa84828501611947565b91505092915050565b60008060408385031215611a1657600080fd5b6000611a2485828601611947565b9250506020611a3585828601611947565b9150509250929050565b600080600060608486031215611a5457600080fd5b6000611a6286828701611947565b9350506020611a7386828701611947565b9250506040611a84868287016119c5565b9150509250925092565b60008060008060808587031215611aa457600080fd5b6000611ab287828801611947565b9450506020611ac387828801611947565b9350506040611ad4878288016119c5565b925050606085013567ffffffffffffffff811115611af157600080fd5b611afd8782880161199b565b91505092959194509250565b60008060408385031215611b1c57600080fd5b6000611b2a85828601611947565b9250506020611b3b8582860161195c565b9150509250929050565b60008060408385031215611b5857600080fd5b6000611b6685828601611947565b9250506020611b77858286016119c5565b9150509250929050565b600060208284031215611b9357600080fd5b6000611ba184828501611971565b91505092915050565b600060208284031215611bbc57600080fd5b6000611bca84828501611986565b91505092915050565b600060208284031215611be557600080fd5b6000611bf3848285016119c5565b91505092915050565b611c0581612129565b82525050565b611c148161213b565b82525050565b6000611c25826120e6565b611c2f81856120fc565b9350611c3f8185602086016121ac565b611c48816122a0565b840191505092915050565b6000611c5e826120f1565b611c68818561210d565b9350611c788185602086016121ac565b611c81816122a0565b840191505092915050565b6000611c97826120f1565b611ca1818561211e565b9350611cb18185602086016121ac565b80840191505092915050565b6000611cca602d8361210d565b9150611cd5826122b1565b604082019050919050565b6000611ced60328361210d565b9150611cf882612300565b604082019050919050565b6000611d1060258361210d565b9150611d1b8261234f565b604082019050919050565b6000611d33601c8361210d565b9150611d3e8261239e565b602082019050919050565b6000611d5660248361210d565b9150611d61826123c7565b604082019050919050565b6000611d7960198361210d565b9150611d8482612416565b602082019050919050565b6000611d9c60298361210d565b9150611da78261243f565b604082019050919050565b6000611dbf60208361210d565b9150611dca8261248e565b602082019050919050565b6000611de260188361210d565b9150611ded826124b7565b602082019050919050565b6000611e0560218361210d565b9150611e10826124e0565b604082019050919050565b6000611e28603d8361210d565b9150611e338261252f565b604082019050919050565b611e4781612193565b82525050565b6000611e598285611c8c565b9150611e658284611c8c565b91508190509392505050565b6000602082019050611e866000830184611bfc565b92915050565b6000608082019050611ea16000830187611bfc565b611eae6020830186611bfc565b611ebb6040830185611e3e565b8181036060830152611ecd8184611c1a565b905095945050505050565b6000602082019050611eed6000830184611c0b565b92915050565b60006020820190508181036000830152611f0d8184611c53565b905092915050565b60006020820190508181036000830152611f2e81611cbd565b9050919050565b60006020820190508181036000830152611f4e81611ce0565b9050919050565b60006020820190508181036000830152611f6e81611d03565b9050919050565b60006020820190508181036000830152611f8e81611d26565b9050919050565b60006020820190508181036000830152611fae81611d49565b9050919050565b60006020820190508181036000830152611fce81611d6c565b9050919050565b60006020820190508181036000830152611fee81611d8f565b9050919050565b6000602082019050818103600083015261200e81611db2565b9050919050565b6000602082019050818103600083015261202e81611dd5565b9050919050565b6000602082019050818103600083015261204e81611df8565b9050919050565b6000602082019050818103600083015261206e81611e1b565b9050919050565b600060208201905061208a6000830184611e3e565b92915050565b600061209a6120ab565b90506120a68282612211565b919050565b6000604051905090565b600067ffffffffffffffff8211156120d0576120cf612271565b5b6120d9826122a0565b9050602081019050919050565b600081519050919050565b600081519050919050565b600082825260208201905092915050565b600082825260208201905092915050565b600081905092915050565b600061213482612173565b9050919050565b60008115159050919050565b60007fffffffff0000000000000000000000000000000000000000000000000000000082169050919050565b600073ffffffffffffffffffffffffffffffffffffffff82169050919050565b6000819050919050565b82818337600083830152505050565b60005b838110156121ca5780820151818401526020810190506121af565b838111156121d9576000848401525b50505050565b600060028204905060018216806121f757607f821691505b6020821081141561220b5761220a612242565b5b50919050565b61221a826122a0565b810181811067ffffffffffffffff8211171561223957612238612271565b5b80604052505050565b7f4e487b7100000000000000000000000000000000000000000000000000000000600052602260045260246000fd5b7f4e487b7100000000000000000000000000000000000000000000000000000000600052604160045260246000fd5b6000601f19601f8301169050919050565b7f4552433732313a2063616c6c6572206973206e6f7420746f6b656e206f776e6560008201527f72206f7220617070726f76656400000000000000000000000000000000000000602082015250565b7f4552433732313a207472616e7366657220746f206e6f6e20455243373231526560008201527f63656976657220696d706c656d656e7465720000000000000000000000000000602082015250565b7f4552433732313a207472616e736665722066726f6d20696e636f72726563742060008201527f6f776e6572000000000000000000000000000000000000000000000000000000602082015250565b7f4552433732313a20746f6b656e20616c7265616479206d696e74656400000000600082015250565b7f4552433732313a207472616e7366657220746f20746865207a65726f2061646460008201527f7265737300000000000000000000000000000000000000000000000000000000602082015250565b7f4552433732313a20617070726f766520746f2063616c6c657200000000000000600082015250565b7f4552433732313a2061646472657373207a65726f206973206e6f74206120766160008201527f6c6964206f776e65720000000000000000000000000000000000000000000000602082015250565b7f4552433732313a206d696e7420746f20746865207a65726f2061646472657373600082015250565b7f4552433732313a20696e76616c696420746f6b656e2049440000000000000000600082015250565b7f4552433732313a20617070726f76616c20746f2063757272656e74206f776e6560008201527f7200000000000000000000000000000000000000000000000000000000000000602082015250565b7f4552433732313a20617070726f76652063616c6c6572206973206e6f7420746f60008201527f6b656e206f776e6572206f7220617070726f76656420666f7220616c6c000000602082015250565b61258781612129565b811461259257600080fd5b50565b61259e8161213b565b81146125a957600080fd5b50565b6125b581612147565b81146125c057600080fd5b50565b6125cc81612193565b81146125d757600080fd5b5056fea2646970667358221220fafc81b5214de3fc7d6a62d2b1d80679519887dd5b6f5798bd34af51bfde498d64736f6c63430008040033a264697066735822122000d28670a00612241b453e014eeb3351aa27532211a70d0a0cfb5dbaec0e2d2664736f6c63430008040033",
  "linkReferences": {},
  "deployedLinkReferences": {}
}