{
  "_format": "hh-sol-artifact-1",
  "contractName": "KarmaToken",
  "sourceName": "contracts/KarmaTokens.sol",
  "abi": [
    {
      "inputs": [],
      "stateMutability": "nonpayable",
      "type": "constructor"
    },
    {
      "anonymous": false,
      "inputs": [
        {
          "indexed": true,
          "internalType": "address",
          "name": "owner",
          "type": "address"
        },
        {
          "indexed": true,
          "internalType": "address",
          "name": "spender",
          "type": "address"
        },
        {
          "indexed": false,
          "internalType": "uint256",
          "name": "value",
          "type": "uint256"
        }
      ],
      "name": "Approval",
      "type": "event"
    },
    {
      "anonymous": false,
      "inputs": [
        {
          "indexed": true,
          "internalType": "address",
          "name": "from",
          "type": "address"
        },
        {
          "indexed": true,
          "internalType": "address",
          "name": "to",
          "type": "address"
        },
        {
          "indexed": false,
          "internalType": "uint256",
          "name": "value",
          "type": "uint256"
        }
      ],
      "name": "Transfer",
      "type": "event"
    },
    {
      "inputs": [
        {
          "internalType": "address",
          "name": "owner",
          "type": "address"
        },
        {
          "internalType": "address",
          "name": "spender",
          "type": "address"
        }
      ],
      "name": "allowance",
      "outputs": [
        {
          "internalType": "uint256",
          "name": "",
          "type": "uint256"
        }
      ],
      "stateMutability": "view",
      "type": "function"
    },
    {
      "inputs": [
        {
          "internalType": "address",
          "name": "spender",
          "type": "address"
        },
        {
          "internalType": "uint256",
          "name": "amount",
          "type": "uint256"
        }
      ],
      "name": "approve",
      "outputs": [
        {
          "internalType": "bool",
          "name": "",
          "type": "bool"
        }
      ],
      "stateMutability": "nonpayable",
      "type": "function"
    },
    {
      "inputs": [
        {
          "internalType": "address",
          "name": "account",
          "type": "address"
        }
      ],
      "name": "balanceOf",
      "outputs": [
        {
          "internalType": "uint256",
          "name": "",
          "type": "uint256"
        }
      ],
      "stateMutability": "view",
      "type": "function"
    },
    {
      "inputs": [],
      "name": "decimals",
      "outputs": [
        {
          "internalType": "uint8",
          "name": "",
          "type": "uint8"
        }
      ],
      "stateMutability": "view",
      "type": "function"
    },
    {
      "inputs": [
        {
          "internalType": "address",
          "name": "spender",
          "type": "address"
        },
        {
          "internalType": "uint256",
          "name": "subtractedValue",
          "type": "uint256"
        }
      ],
      "name": "decreaseAllowance",
      "outputs": [
        {
          "internalType": "bool",
          "name": "",
          "type": "bool"
        }
      ],
      "stateMutability": "nonpayable",
      "type": "function"
    },
    {
      "inputs": [
        {
          "internalType": "address",
          "name": "userAddress",
          "type": "address"
        },
        {
          "internalType": "string",
          "name": "category",
          "type": "string"
        }
      ],
      "name": "getBalance",
      "outputs": [
        {
          "internalType": "uint256",
          "name": "",
          "type": "uint256"
        }
      ],
      "stateMutability": "view",
      "type": "function"
    },
    {
      "inputs": [
        {
          "internalType": "address",
          "name": "spender",
          "type": "address"
        },
        {
          "internalType": "uint256",
          "name": "addedValue",
          "type": "uint256"
        }
      ],
      "name": "increaseAllowance",
      "outputs": [
        {
          "internalType": "bool",
          "name": "",
          "type": "bool"
        }
      ],
      "stateMutability": "nonpayable",
      "type": "function"
    },
    {
      "inputs": [
        {
          "internalType": "address[]",
          "name": "receivers",
          "type": "address[]"
        },
        {
          "internalType": "uint256",
          "name": "amount",
          "type": "uint256"
        },
        {
          "internalType": "string",
          "name": "category",
          "type": "string"
        }
      ],
      "name": "issueToken",
      "outputs": [],
      "stateMutability": "nonpayable",
      "type": "function"
    },
    {
      "inputs": [],
      "name": "name",
      "outputs": [
        {
          "internalType": "string",
          "name": "",
          "type": "string"
        }
      ],
      "stateMutability": "view",
      "type": "function"
    },
    {
      "inputs": [],
      "name": "symbol",
      "outputs": [
        {
          "internalType": "string",
          "name": "",
          "type": "string"
        }
      ],
      "stateMutability": "view",
      "type": "function"
    },
    {
      "inputs": [],
      "name": "totalSupply",
      "outputs": [
        {
          "internalType": "uint256",
          "name": "",
          "type": "uint256"
        }
      ],
      "stateMutability": "view",
      "type": "function"
    },
    {
      "inputs": [
        {
          "internalType": "address",
          "name": "to",
          "type": "address"
        },
        {
          "internalType": "uint256",
          "name": "amount",
          "type": "uint256"
        }
      ],
      "name": "transfer",
      "outputs": [
        {
          "internalType": "bool",
          "name": "",
          "type": "bool"
        }
      ],
      "stateMutability": "nonpayable",
      "type": "function"
    },
    {
      "inputs": [
        {
          "internalType": "address",
          "name": "from",
          "type": "address"
        },
        {
          "internalType": "address",
          "name": "to",
          "type": "address"
        },
        {
          "internalType": "uint256",
          "name": "amount",
          "type": "uint256"
        }
      ],
      "name": "transferFrom",
      "outputs": [
        {
          "internalType": "bool",
          "name": "",
          "type": "bool"
        }
      ],
      "stateMutability": "nonpayable",
      "type": "function"
    }
  ],
  "bytecode": "0x60806040523480156200001157600080fd5b506040518060400160405280600e81526020017f4b61726d61546f6b656e546573740000000000000000000000000000000000008152506040518060400160405280600381526020017f4b41540000000000000000000000000000000000000000000000000000000000815250816003908051906020019062000096929190620000b8565b508060049080519060200190620000af929190620000b8565b505050620001cd565b828054620000c69062000168565b90600052602060002090601f016020900481019282620000ea576000855562000136565b82601f106200010557805160ff191683800117855562000136565b8280016001018555821562000136579182015b828111156200013557825182559160200191906001019062000118565b5b50905062000145919062000149565b5090565b5b80821115620001645760008160009055506001016200014a565b5090565b600060028204905060018216806200018157607f821691505b602082108114156200019857620001976200019e565b5b50919050565b7f4e487b7100000000000000000000000000000000000000000000000000000000600052602260045260246000fd5b6118e380620001dd6000396000f3fe608060405234801561001057600080fd5b50600436106100cf5760003560e01c8063395093511161008c578063a457c2d711610066578063a457c2d71461023c578063a9059cbb1461026c578063ba6f556e1461029c578063dd62ed3e146102b8576100cf565b806339509351146101be57806370a08231146101ee57806395d89b411461021e576100cf565b806306fdde03146100d4578063095ea7b3146100f257806318160ddd146101225780631dd7cecf1461014057806323b872dd14610170578063313ce567146101a0575b600080fd5b6100dc6102e8565b6040516100e991906112fd565b60405180910390f35b61010c60048036038101906101079190611061565b61037a565b60405161011991906112e2565b60405180910390f35b61012a61039d565b604051610137919061141f565b60405180910390f35b61015a60048036038101906101559190611009565b6103a7565b604051610167919061141f565b60405180910390f35b61018a60048036038101906101859190610fba565b610410565b60405161019791906112e2565b60405180910390f35b6101a861043f565b6040516101b5919061143a565b60405180910390f35b6101d860048036038101906101d39190611061565b610448565b6040516101e591906112e2565b60405180910390f35b61020860048036038101906102039190610f55565b61047f565b604051610215919061141f565b60405180910390f35b6102266104c7565b60405161023391906112fd565b60405180910390f35b61025660048036038101906102519190611061565b610559565b60405161026391906112e2565b60405180910390f35b61028660048036038101906102819190611061565b6105d0565b60405161029391906112e2565b60405180910390f35b6102b660048036038101906102b1919061109d565b6105f3565b005b6102d260048036038101906102cd9190610f7e565b6107d8565b6040516102df919061141f565b60405180910390f35b6060600380546102f790611569565b80601f016020809104026020016040519081016040528092919081815260200182805461032390611569565b80156103705780601f1061034557610100808354040283529160200191610370565b820191906000526020600020905b81548152906001019060200180831161035357829003601f168201915b5050505050905090565b60008061038561085f565b9050610392818585610867565b600191505092915050565b6000600254905090565b6000600560008573ffffffffffffffffffffffffffffffffffffffff1673ffffffffffffffffffffffffffffffffffffffff16815260200190815260200160002083836040516103f89291906112c9565b90815260200160405180910390205490509392505050565b60008061041b61085f565b9050610428858285610a32565b610433858585610abe565b60019150509392505050565b60006012905090565b60008061045361085f565b905061047481858561046585896107d8565b61046f919061147c565b610867565b600191505092915050565b60008060008373ffffffffffffffffffffffffffffffffffffffff1673ffffffffffffffffffffffffffffffffffffffff168152602001908152602001600020549050919050565b6060600480546104d690611569565b80601f016020809104026020016040519081016040528092919081815260200182805461050290611569565b801561054f5780601f106105245761010080835404028352916020019161054f565b820191906000526020600020905b81548152906001019060200180831161053257829003601f168201915b5050505050905090565b60008061056461085f565b9050600061057282866107d8565b9050838110156105b7576040517f08c379a00000000000000000000000000000000000000000000000000000000081526004016105ae906113df565b60405180910390fd5b6105c48286868403610867565b60019250505092915050565b6000806105db61085f565b90506105e8818585610abe565b600191505092915050565b60005b858590508110156107d05761065886868381811061063d577f4e487b7100000000000000000000000000000000000000000000000000000000600052603260045260246000fd5b90506020020160208101906106529190610f55565b85610d36565b600160056000888885818110610697577f4e487b7100000000000000000000000000000000000000000000000000000000600052603260045260246000fd5b90506020020160208101906106ac9190610f55565b73ffffffffffffffffffffffffffffffffffffffff1673ffffffffffffffffffffffffffffffffffffffff16815260200190815260200160002084846040516106f69291906112c9565b90815260200160405180910390205461070f919061147c565b6005600088888581811061074c577f4e487b7100000000000000000000000000000000000000000000000000000000600052603260045260246000fd5b90506020020160208101906107619190610f55565b73ffffffffffffffffffffffffffffffffffffffff1673ffffffffffffffffffffffffffffffffffffffff16815260200190815260200160002084846040516107ab9291906112c9565b90815260200160405180910390208190555080806107c89061159b565b9150506105f6565b505050505050565b6000600160008473ffffffffffffffffffffffffffffffffffffffff1673ffffffffffffffffffffffffffffffffffffffff16815260200190815260200160002060008373ffffffffffffffffffffffffffffffffffffffff1673ffffffffffffffffffffffffffffffffffffffff16815260200190815260200160002054905092915050565b600033905090565b600073ffffffffffffffffffffffffffffffffffffffff168373ffffffffffffffffffffffffffffffffffffffff1614156108d7576040517f08c379a00000000000000000000000000000000000000000000000000000000081526004016108ce906113bf565b60405180910390fd5b600073ffffffffffffffffffffffffffffffffffffffff168273ffffffffffffffffffffffffffffffffffffffff161415610947576040517f08c379a000000000000000000000000000000000000000000000000000000000815260040161093e9061133f565b60405180910390fd5b80600160008573ffffffffffffffffffffffffffffffffffffffff1673ffffffffffffffffffffffffffffffffffffffff16815260200190815260200160002060008473ffffffffffffffffffffffffffffffffffffffff1673ffffffffffffffffffffffffffffffffffffffff168152602001908152602001600020819055508173ffffffffffffffffffffffffffffffffffffffff168373ffffffffffffffffffffffffffffffffffffffff167f8c5be1e5ebec7d5bd14f71427d1e84f3dd0314c0f7b2291e5b200ac8c7c3b92583604051610a25919061141f565b60405180910390a3505050565b6000610a3e84846107d8565b90507fffffffffffffffffffffffffffffffffffffffffffffffffffffffffffffffff8114610ab85781811015610aaa576040517f08c379a0000000000000000000000000000000000000000000000000000000008152600401610aa19061135f565b60405180910390fd5b610ab78484848403610867565b5b50505050565b600073ffffffffffffffffffffffffffffffffffffffff168373ffffffffffffffffffffffffffffffffffffffff161415610b2e576040517f08c379a0000000000000000000000000000000000000000000000000000000008152600401610b259061139f565b60405180910390fd5b600073ffffffffffffffffffffffffffffffffffffffff168273ffffffffffffffffffffffffffffffffffffffff161415610b9e576040517f08c379a0000000000000000000000000000000000000000000000000000000008152600401610b959061131f565b60405180910390fd5b610ba9838383610e8d565b60008060008573ffffffffffffffffffffffffffffffffffffffff1673ffffffffffffffffffffffffffffffffffffffff16815260200190815260200160002054905081811015610c2f576040517f08c379a0000000000000000000000000000000000000000000000000000000008152600401610c269061137f565b60405180910390fd5b8181036000808673ffffffffffffffffffffffffffffffffffffffff1673ffffffffffffffffffffffffffffffffffffffff16815260200190815260200160002081905550816000808573ffffffffffffffffffffffffffffffffffffffff1673ffffffffffffffffffffffffffffffffffffffff168152602001908152602001600020600082825401925050819055508273ffffffffffffffffffffffffffffffffffffffff168473ffffffffffffffffffffffffffffffffffffffff167fddf252ad1be2c89b69c2b068fc378daa952ba7f163c4a11628f55a4df523b3ef84604051610d1d919061141f565b60405180910390a3610d30848484610e92565b50505050565b600073ffffffffffffffffffffffffffffffffffffffff168273ffffffffffffffffffffffffffffffffffffffff161415610da6576040517f08c379a0000000000000000000000000000000000000000000000000000000008152600401610d9d906113ff565b60405180910390fd5b610db260008383610e8d565b8060026000828254610dc4919061147c565b92505081905550806000808473ffffffffffffffffffffffffffffffffffffffff1673ffffffffffffffffffffffffffffffffffffffff168152602001908152602001600020600082825401925050819055508173ffffffffffffffffffffffffffffffffffffffff16600073ffffffffffffffffffffffffffffffffffffffff167fddf252ad1be2c89b69c2b068fc378daa952ba7f163c4a11628f55a4df523b3ef83604051610e75919061141f565b60405180910390a3610e8960008383610e92565b5050565b505050565b505050565b600081359050610ea68161187f565b92915050565b60008083601f840112610ebe57600080fd5b8235905067ffffffffffffffff811115610ed757600080fd5b602083019150836020820283011115610eef57600080fd5b9250929050565b60008083601f840112610f0857600080fd5b8235905067ffffffffffffffff811115610f2157600080fd5b602083019150836001820283011115610f3957600080fd5b9250929050565b600081359050610f4f81611896565b92915050565b600060208284031215610f6757600080fd5b6000610f7584828501610e97565b91505092915050565b60008060408385031215610f9157600080fd5b6000610f9f85828601610e97565b9250506020610fb085828601610e97565b9150509250929050565b600080600060608486031215610fcf57600080fd5b6000610fdd86828701610e97565b9350506020610fee86828701610e97565b9250506040610fff86828701610f40565b9150509250925092565b60008060006040848603121561101e57600080fd5b600061102c86828701610e97565b935050602084013567ffffffffffffffff81111561104957600080fd5b61105586828701610ef6565b92509250509250925092565b6000806040838503121561107457600080fd5b600061108285828601610e97565b925050602061109385828601610f40565b9150509250929050565b6000806000806000606086880312156110b557600080fd5b600086013567ffffffffffffffff8111156110cf57600080fd5b6110db88828901610eac565b955095505060206110ee88828901610f40565b935050604086013567ffffffffffffffff81111561110b57600080fd5b61111788828901610ef6565b92509250509295509295909350565b61112f816114e4565b82525050565b60006111418385611471565b935061114e838584611527565b82840190509392505050565b600061116582611455565b61116f8185611460565b935061117f818560208601611536565b61118881611642565b840191505092915050565b60006111a0602383611460565b91506111ab82611653565b604082019050919050565b60006111c3602283611460565b91506111ce826116a2565b604082019050919050565b60006111e6601d83611460565b91506111f1826116f1565b602082019050919050565b6000611209602683611460565b91506112148261171a565b604082019050919050565b600061122c602583611460565b915061123782611769565b604082019050919050565b600061124f602483611460565b915061125a826117b8565b604082019050919050565b6000611272602583611460565b915061127d82611807565b604082019050919050565b6000611295601f83611460565b91506112a082611856565b602082019050919050565b6112b481611510565b82525050565b6112c38161151a565b82525050565b60006112d6828486611135565b91508190509392505050565b60006020820190506112f76000830184611126565b92915050565b60006020820190508181036000830152611317818461115a565b905092915050565b6000602082019050818103600083015261133881611193565b9050919050565b60006020820190508181036000830152611358816111b6565b9050919050565b60006020820190508181036000830152611378816111d9565b9050919050565b60006020820190508181036000830152611398816111fc565b9050919050565b600060208201905081810360008301526113b88161121f565b9050919050565b600060208201905081810360008301526113d881611242565b9050919050565b600060208201905081810360008301526113f881611265565b9050919050565b6000602082019050818103600083015261141881611288565b9050919050565b600060208201905061143460008301846112ab565b92915050565b600060208201905061144f60008301846112ba565b92915050565b600081519050919050565b600082825260208201905092915050565b600081905092915050565b600061148782611510565b915061149283611510565b9250827fffffffffffffffffffffffffffffffffffffffffffffffffffffffffffffffff038211156114c7576114c66115e4565b5b828201905092915050565b60006114dd826114f0565b9050919050565b60008115159050919050565b600073ffffffffffffffffffffffffffffffffffffffff82169050919050565b6000819050919050565b600060ff82169050919050565b82818337600083830152505050565b60005b83811015611554578082015181840152602081019050611539565b83811115611563576000848401525b50505050565b6000600282049050600182168061158157607f821691505b6020821081141561159557611594611613565b5b50919050565b60006115a682611510565b91507fffffffffffffffffffffffffffffffffffffffffffffffffffffffffffffffff8214156115d9576115d86115e4565b5b600182019050919050565b7f4e487b7100000000000000000000000000000000000000000000000000000000600052601160045260246000fd5b7f4e487b7100000000000000000000000000000000000000000000000000000000600052602260045260246000fd5b6000601f19601f8301169050919050565b7f45524332303a207472616e7366657220746f20746865207a65726f206164647260008201527f6573730000000000000000000000000000000000000000000000000000000000602082015250565b7f45524332303a20617070726f766520746f20746865207a65726f20616464726560008201527f7373000000000000000000000000000000000000000000000000000000000000602082015250565b7f45524332303a20696e73756666696369656e7420616c6c6f77616e6365000000600082015250565b7f45524332303a207472616e7366657220616d6f756e742065786365656473206260008201527f616c616e63650000000000000000000000000000000000000000000000000000602082015250565b7f45524332303a207472616e736665722066726f6d20746865207a65726f20616460008201527f6472657373000000000000000000000000000000000000000000000000000000602082015250565b7f45524332303a20617070726f76652066726f6d20746865207a65726f2061646460008201527f7265737300000000000000000000000000000000000000000000000000000000602082015250565b7f45524332303a2064656372656173656420616c6c6f77616e63652062656c6f7760008201527f207a65726f000000000000000000000000000000000000000000000000000000602082015250565b7f45524332303a206d696e7420746f20746865207a65726f206164647265737300600082015250565b611888816114d2565b811461189357600080fd5b50565b61189f81611510565b81146118aa57600080fd5b5056fea2646970667358221220d7dc7d4f5617a52425ae52b79b5b73d3289df6417180d8c3908323219c085e6a64736f6c63430008040033",
  "linkReferences": {},
  "deployedLinkReferences": {}
}