{
  "_format": "hh-sol-artifact-1",
  "contractName": "KarmaPerks",
  "sourceName": "contracts/KarmaPerks.sol",
  "abi": [
    {
      "inputs": [],
      "stateMutability": "nonpayable",
      "type": "constructor"
    },
    {
      "anonymous": false,
      "inputs": [
        {
          "indexed": true,
          "internalType": "address",
          "name": "owner",
          "type": "address"
        },
        {
          "indexed": true,
          "internalType": "address",
          "name": "approved",
          "type": "address"
        },
        {
          "indexed": true,
          "internalType": "uint256",
          "name": "tokenId",
          "type": "uint256"
        }
      ],
      "name": "Approval",
      "type": "event"
    },
    {
      "anonymous": false,
      "inputs": [
        {
          "indexed": true,
          "internalType": "address",
          "name": "owner",
          "type": "address"
        },
        {
          "indexed": true,
          "internalType": "address",
          "name": "operator",
          "type": "address"
        },
        {
          "indexed": false,
          "internalType": "bool",
          "name": "approved",
          "type": "bool"
        }
      ],
      "name": "ApprovalForAll",
      "type": "event"
    },
    {
      "anonymous": false,
      "inputs": [
        {
          "indexed": true,
          "internalType": "uint256",
          "name": "compagineId",
          "type": "uint256"
        },
        {
          "indexed": false,
          "internalType": "uint256[]",
          "name": "tokenIds",
          "type": "uint256[]"
        },
        {
          "indexed": true,
          "internalType": "address[]",
          "name": "minters",
          "type": "address[]"
        }
      ],
      "name": "TokensMinted",
      "type": "event"
    },
    {
      "anonymous": false,
      "inputs": [
        {
          "indexed": true,
          "internalType": "address",
          "name": "from",
          "type": "address"
        },
        {
          "indexed": true,
          "internalType": "address",
          "name": "to",
          "type": "address"
        },
        {
          "indexed": true,
          "internalType": "uint256",
          "name": "tokenId",
          "type": "uint256"
        }
      ],
      "name": "Transfer",
      "type": "event"
    },
    {
      "inputs": [
        {
          "internalType": "address",
          "name": "",
          "type": "address"
        },
        {
          "internalType": "uint256",
          "name": "",
          "type": "uint256"
        }
      ],
      "name": "airdropNFTS",
      "outputs": [
        {
          "internalType": "address",
          "name": "",
          "type": "address"
        }
      ],
      "stateMutability": "view",
      "type": "function"
    },
    {
      "inputs": [
        {
          "internalType": "address",
          "name": "to",
          "type": "address"
        },
        {
          "internalType": "uint256",
          "name": "tokenId",
          "type": "uint256"
        }
      ],
      "name": "approve",
      "outputs": [],
      "stateMutability": "nonpayable",
      "type": "function"
    },
    {
      "inputs": [
        {
          "internalType": "address",
          "name": "owner",
          "type": "address"
        }
      ],
      "name": "balanceOf",
      "outputs": [
        {
          "internalType": "uint256",
          "name": "",
          "type": "uint256"
        }
      ],
      "stateMutability": "view",
      "type": "function"
    },
    {
      "inputs": [
        {
          "internalType": "string",
          "name": "tokenUri",
          "type": "string"
        },
        {
          "internalType": "address[]",
          "name": "minters",
          "type": "address[]"
        }
      ],
      "name": "bulkMintERC721",
      "outputs": [],
      "stateMutability": "nonpayable",
      "type": "function"
    },
    {
      "inputs": [
        {
          "internalType": "uint256",
          "name": "tokenId",
          "type": "uint256"
        }
      ],
      "name": "getApproved",
      "outputs": [
        {
          "internalType": "address",
          "name": "",
          "type": "address"
        }
      ],
      "stateMutability": "view",
      "type": "function"
    },
    {
      "inputs": [
        {
          "internalType": "address",
          "name": "owner",
          "type": "address"
        },
        {
          "internalType": "address",
          "name": "operator",
          "type": "address"
        }
      ],
      "name": "isApprovedForAll",
      "outputs": [
        {
          "internalType": "bool",
          "name": "",
          "type": "bool"
        }
      ],
      "stateMutability": "view",
      "type": "function"
    },
    {
      "inputs": [],
      "name": "name",
      "outputs": [
        {
          "internalType": "string",
          "name": "",
          "type": "string"
        }
      ],
      "stateMutability": "view",
      "type": "function"
    },
    {
      "inputs": [],
      "name": "owner",
      "outputs": [
        {
          "internalType": "address payable",
          "name": "",
          "type": "address"
        }
      ],
      "stateMutability": "view",
      "type": "function"
    },
    {
      "inputs": [
        {
          "internalType": "uint256",
          "name": "tokenId",
          "type": "uint256"
        }
      ],
      "name": "ownerOf",
      "outputs": [
        {
          "internalType": "address",
          "name": "",
          "type": "address"
        }
      ],
      "stateMutability": "view",
      "type": "function"
    },
    {
      "inputs": [
        {
          "internalType": "address",
          "name": "from",
          "type": "address"
        },
        {
          "internalType": "address",
          "name": "to",
          "type": "address"
        },
        {
          "internalType": "uint256",
          "name": "tokenId",
          "type": "uint256"
        }
      ],
      "name": "safeTransferFrom",
      "outputs": [],
      "stateMutability": "nonpayable",
      "type": "function"
    },
    {
      "inputs": [
        {
          "internalType": "address",
          "name": "from",
          "type": "address"
        },
        {
          "internalType": "address",
          "name": "to",
          "type": "address"
        },
        {
          "internalType": "uint256",
          "name": "tokenId",
          "type": "uint256"
        },
        {
          "internalType": "bytes",
          "name": "data",
          "type": "bytes"
        }
      ],
      "name": "safeTransferFrom",
      "outputs": [],
      "stateMutability": "nonpayable",
      "type": "function"
    },
    {
      "inputs": [
        {
          "internalType": "address",
          "name": "operator",
          "type": "address"
        },
        {
          "internalType": "bool",
          "name": "approved",
          "type": "bool"
        }
      ],
      "name": "setApprovalForAll",
      "outputs": [],
      "stateMutability": "nonpayable",
      "type": "function"
    },
    {
      "inputs": [
        {
          "internalType": "bytes4",
          "name": "interfaceId",
          "type": "bytes4"
        }
      ],
      "name": "supportsInterface",
      "outputs": [
        {
          "internalType": "bool",
          "name": "",
          "type": "bool"
        }
      ],
      "stateMutability": "view",
      "type": "function"
    },
    {
      "inputs": [],
      "name": "symbol",
      "outputs": [
        {
          "internalType": "string",
          "name": "",
          "type": "string"
        }
      ],
      "stateMutability": "view",
      "type": "function"
    },
    {
      "inputs": [
        {
          "internalType": "uint256",
          "name": "tokenId",
          "type": "uint256"
        }
      ],
      "name": "tokenURI",
      "outputs": [
        {
          "internalType": "string",
          "name": "",
          "type": "string"
        }
      ],
      "stateMutability": "view",
      "type": "function"
    },
    {
      "inputs": [
        {
          "internalType": "address",
          "name": "from",
          "type": "address"
        },
        {
          "internalType": "address",
          "name": "to",
          "type": "address"
        },
        {
          "internalType": "uint256",
          "name": "tokenId",
          "type": "uint256"
        }
      ],
      "name": "transferFrom",
      "outputs": [],
      "stateMutability": "nonpayable",
      "type": "function"
    }
  ],
  "bytecode": "0x60806040523480156200001157600080fd5b506040518060400160405280600e81526020017f546573744b61726d615065726b730000000000000000000000000000000000008152506040518060400160405280600381526020017f544b54000000000000000000000000000000000000000000000000000000000081525081600090805190602001906200009692919062000101565b508060019080519060200190620000af92919062000101565b505050600160088190555033600960006101000a81548173ffffffffffffffffffffffffffffffffffffffff021916908373ffffffffffffffffffffffffffffffffffffffff16021790555062000216565b8280546200010f90620001b1565b90600052602060002090601f0160209004810192826200013357600085556200017f565b82601f106200014e57805160ff19168380011785556200017f565b828001600101855582156200017f579182015b828111156200017e57825182559160200191906001019062000161565b5b5090506200018e919062000192565b5090565b5b80821115620001ad57600081600090555060010162000193565b5090565b60006002820490506001821680620001ca57607f821691505b60208210811415620001e157620001e0620001e7565b5b50919050565b7f4e487b7100000000000000000000000000000000000000000000000000000000600052602260045260246000fd5b61316c80620002266000396000f3fe608060405234801561001057600080fd5b50600436106101005760003560e01c80638da5cb5b11610097578063b88d4fde11610066578063b88d4fde146102ab578063c87b56dd146102c7578063d4b322e4146102f7578063e985e9c51461032757610100565b80638da5cb5b1461023757806395d89b4114610255578063a22cb46514610273578063b47837401461028f57610100565b806323b872dd116100d357806323b872dd1461019f57806342842e0e146101bb5780636352211e146101d757806370a082311461020757610100565b806301ffc9a71461010557806306fdde0314610135578063081812fc14610153578063095ea7b314610183575b600080fd5b61011f600480360381019061011a9190612294565b610357565b60405161012c9190612837565b60405180910390f35b61013d610439565b60405161014a9190612852565b60405180910390f35b61016d6004803603810190610168919061235b565b6104cb565b60405161017a9190612793565b60405180910390f35b61019d60048036038101906101989190612258565b610511565b005b6101b960048036038101906101b49190612152565b610629565b005b6101d560048036038101906101d09190612152565b610689565b005b6101f160048036038101906101ec919061235b565b6106a9565b6040516101fe9190612793565b60405180910390f35b610221600480360381019061021c91906120ed565b610730565b60405161022e9190612a34565b60405180910390f35b61023f6107e8565b60405161024c91906127ae565b60405180910390f35b61025d61080e565b60405161026a9190612852565b60405180910390f35b61028d6004803603810190610288919061221c565b6108a0565b005b6102a960048036038101906102a491906122e6565b6108b6565b005b6102c560048036038101906102c091906121a1565b610bd0565b005b6102e160048036038101906102dc919061235b565b610c32565b6040516102ee9190612852565b60405180910390f35b610311600480360381019061030c9190612258565b610d45565b60405161031e9190612793565b60405180910390f35b610341600480360381019061033c9190612116565b610d93565b60405161034e9190612837565b60405180910390f35b60007f80ac58cd000000000000000000000000000000000000000000000000000000007bffffffffffffffffffffffffffffffffffffffffffffffffffffffff1916827bffffffffffffffffffffffffffffffffffffffffffffffffffffffff1916148061042257507f5b5e139f000000000000000000000000000000000000000000000000000000007bffffffffffffffffffffffffffffffffffffffffffffffffffffffff1916827bffffffffffffffffffffffffffffffffffffffffffffffffffffffff1916145b80610432575061043182610e27565b5b9050919050565b60606000805461044890612c22565b80601f016020809104026020016040519081016040528092919081815260200182805461047490612c22565b80156104c15780601f10610496576101008083540402835291602001916104c1565b820191906000526020600020905b8154815290600101906020018083116104a457829003601f168201915b5050505050905090565b60006104d682610e91565b6004600083815260200190815260200160002060009054906101000a900473ffffffffffffffffffffffffffffffffffffffff169050919050565b600061051c826106a9565b90508073ffffffffffffffffffffffffffffffffffffffff168373ffffffffffffffffffffffffffffffffffffffff16141561058d576040517f08c379a0000000000000000000000000000000000000000000000000000000008152600401610584906129d4565b60405180910390fd5b8073ffffffffffffffffffffffffffffffffffffffff166105ac610edc565b73ffffffffffffffffffffffffffffffffffffffff1614806105db57506105da816105d5610edc565b610d93565b5b61061a576040517f08c379a0000000000000000000000000000000000000000000000000000000008152600401610611906129f4565b60405180910390fd5b6106248383610ee4565b505050565b61063a610634610edc565b82610f9d565b610679576040517f08c379a000000000000000000000000000000000000000000000000000000000815260040161067090612874565b60405180910390fd5b610684838383611032565b505050565b6106a483838360405180602001604052806000815250610bd0565b505050565b6000806106b58361132c565b9050600073ffffffffffffffffffffffffffffffffffffffff168173ffffffffffffffffffffffffffffffffffffffff161415610727576040517f08c379a000000000000000000000000000000000000000000000000000000000815260040161071e906129b4565b60405180910390fd5b80915050919050565b60008073ffffffffffffffffffffffffffffffffffffffff168273ffffffffffffffffffffffffffffffffffffffff1614156107a1576040517f08c379a000000000000000000000000000000000000000000000000000000000815260040161079890612954565b60405180910390fd5b600360008373ffffffffffffffffffffffffffffffffffffffff1673ffffffffffffffffffffffffffffffffffffffff168152602001908152602001600020549050919050565b600960009054906101000a900473ffffffffffffffffffffffffffffffffffffffff1681565b60606001805461081d90612c22565b80601f016020809104026020016040519081016040528092919081815260200182805461084990612c22565b80156108965780601f1061086b57610100808354040283529160200191610896565b820191906000526020600020905b81548152906001019060200180831161087957829003601f168201915b5050505050905090565b6108b26108ab610edc565b8383611369565b5050565b6108be6114d6565b60006108ca600c611526565b90506108d6600c611534565b60008383905067ffffffffffffffff81111561091b577f4e487b7100000000000000000000000000000000000000000000000000000000600052604160045260246000fd5b6040519080825280602002602001820160405280156109495781602001602082028036833780820191505090505b50905060005b84849050811015610b625760006109b4888888888681811061099a577f4e487b7100000000000000000000000000000000000000000000000000000000600052603260045260246000fd5b90506020020160208101906109af91906120ed565b61154a565b905060405180608001604052808281526020013373ffffffffffffffffffffffffffffffffffffffff168152602001878785818110610a1c577f4e487b7100000000000000000000000000000000000000000000000000000000600052603260045260246000fd5b9050602002016020810190610a3191906120ed565b73ffffffffffffffffffffffffffffffffffffffff16815260200185815250600d60008381526020019081526020016000206000820151816000015560208201518160010160006101000a81548173ffffffffffffffffffffffffffffffffffffffff021916908373ffffffffffffffffffffffffffffffffffffffff16021790555060408201518160020160006101000a81548173ffffffffffffffffffffffffffffffffffffffff021916908373ffffffffffffffffffffffffffffffffffffffff1602179055506060820151816003015590505080838381518110610b42577f4e487b7100000000000000000000000000000000000000000000000000000000600052603260045260246000fd5b602002602001018181525050508080610b5a90612c85565b91505061094f565b508383905081511415610bc0578383604051610b7f929190612756565b6040518091039020827f08f4e15369ab882230b0b4dac211550537663c7ae16826a40e94b13d2c91238e83604051610bb79190612815565b60405180910390a35b5050610bca61160c565b50505050565b610be1610bdb610edc565b83610f9d565b610c20576040517f08c379a0000000000000000000000000000000000000000000000000000000008152600401610c1790612874565b60405180910390fd5b610c2c84848484611616565b50505050565b6060610c3d82610e91565b6000600660008481526020019081526020016000208054610c5d90612c22565b80601f0160208091040260200160405190810160405280929190818152602001828054610c8990612c22565b8015610cd65780601f10610cab57610100808354040283529160200191610cd6565b820191906000526020600020905b815481529060010190602001808311610cb957829003601f168201915b505050505090506000610ce7611672565b9050600081511415610cfd578192505050610d40565b600082511115610d32578082604051602001610d1a92919061276f565b60405160208183030381529060405292505050610d40565b610d3b84611689565b925050505b919050565b600e6020528160005260406000208181548110610d6157600080fd5b906000526020600020016000915091509054906101000a900473ffffffffffffffffffffffffffffffffffffffff1681565b6000600560008473ffffffffffffffffffffffffffffffffffffffff1673ffffffffffffffffffffffffffffffffffffffff16815260200190815260200160002060008373ffffffffffffffffffffffffffffffffffffffff1673ffffffffffffffffffffffffffffffffffffffff16815260200190815260200160002060009054906101000a900460ff16905092915050565b60007f01ffc9a7000000000000000000000000000000000000000000000000000000007bffffffffffffffffffffffffffffffffffffffffffffffffffffffff1916827bffffffffffffffffffffffffffffffffffffffffffffffffffffffff1916149050919050565b610e9a816116f1565b610ed9576040517f08c379a0000000000000000000000000000000000000000000000000000000008152600401610ed0906129b4565b60405180910390fd5b50565b600033905090565b816004600083815260200190815260200160002060006101000a81548173ffffffffffffffffffffffffffffffffffffffff021916908373ffffffffffffffffffffffffffffffffffffffff160217905550808273ffffffffffffffffffffffffffffffffffffffff16610f57836106a9565b73ffffffffffffffffffffffffffffffffffffffff167f8c5be1e5ebec7d5bd14f71427d1e84f3dd0314c0f7b2291e5b200ac8c7c3b92560405160405180910390a45050565b600080610fa9836106a9565b90508073ffffffffffffffffffffffffffffffffffffffff168473ffffffffffffffffffffffffffffffffffffffff161480610feb5750610fea8185610d93565b5b8061102957508373ffffffffffffffffffffffffffffffffffffffff16611011846104cb565b73ffffffffffffffffffffffffffffffffffffffff16145b91505092915050565b8273ffffffffffffffffffffffffffffffffffffffff16611052826106a9565b73ffffffffffffffffffffffffffffffffffffffff16146110a8576040517f08c379a000000000000000000000000000000000000000000000000000000000815260040161109f906128b4565b60405180910390fd5b600073ffffffffffffffffffffffffffffffffffffffff168273ffffffffffffffffffffffffffffffffffffffff161415611118576040517f08c379a000000000000000000000000000000000000000000000000000000000815260040161110f906128f4565b60405180910390fd5b6111258383836001611732565b8273ffffffffffffffffffffffffffffffffffffffff16611145826106a9565b73ffffffffffffffffffffffffffffffffffffffff161461119b576040517f08c379a0000000000000000000000000000000000000000000000000000000008152600401611192906128b4565b60405180910390fd5b6004600082815260200190815260200160002060006101000a81549073ffffffffffffffffffffffffffffffffffffffff02191690556001600360008573ffffffffffffffffffffffffffffffffffffffff1673ffffffffffffffffffffffffffffffffffffffff168152602001908152602001600020600082825403925050819055506001600360008473ffffffffffffffffffffffffffffffffffffffff1673ffffffffffffffffffffffffffffffffffffffff16815260200190815260200160002060008282540192505081905550816002600083815260200190815260200160002060006101000a81548173ffffffffffffffffffffffffffffffffffffffff021916908373ffffffffffffffffffffffffffffffffffffffff160217905550808273ffffffffffffffffffffffffffffffffffffffff168473ffffffffffffffffffffffffffffffffffffffff167fddf252ad1be2c89b69c2b068fc378daa952ba7f163c4a11628f55a4df523b3ef60405160405180910390a46113278383836001611738565b505050565b60006002600083815260200190815260200160002060009054906101000a900473ffffffffffffffffffffffffffffffffffffffff169050919050565b8173ffffffffffffffffffffffffffffffffffffffff168373ffffffffffffffffffffffffffffffffffffffff1614156113d8576040517f08c379a00000000000000000000000000000000000000000000000000000000081526004016113cf90612914565b60405180910390fd5b80600560008573ffffffffffffffffffffffffffffffffffffffff1673ffffffffffffffffffffffffffffffffffffffff16815260200190815260200160002060008473ffffffffffffffffffffffffffffffffffffffff1673ffffffffffffffffffffffffffffffffffffffff16815260200190815260200160002060006101000a81548160ff0219169083151502179055508173ffffffffffffffffffffffffffffffffffffffff168373ffffffffffffffffffffffffffffffffffffffff167f17307eab39ab6107e8899845ad3d59bd9653f200f220920489ca2b5937696c31836040516114c99190612837565b60405180910390a3505050565b6002600854141561151c576040517f08c379a000000000000000000000000000000000000000000000000000000000815260040161151390612a14565b60405180910390fd5b6002600881905550565b600081600001549050919050565b6001816000016000828254019250508190555050565b6000808484905011611591576040517f08c379a000000000000000000000000000000000000000000000000000000000815260040161158890612934565b60405180910390fd5b600061159d600b611526565b90506115a9600b611534565b6115b3838261173e565b6116018186868080601f016020809104026020016040519081016040528093929190818152602001838380828437600081840152601f19601f8201169050808301925050505050505061195c565b809150509392505050565b6001600881905550565b611621848484611032565b61162d848484846119d0565b61166c576040517f08c379a000000000000000000000000000000000000000000000000000000000815260040161166390612894565b60405180910390fd5b50505050565b606060405180602001604052806000815250905090565b606061169482610e91565b600061169e611672565b905060008151116116be57604051806020016040528060008152506116e9565b806116c884611b67565b6040516020016116d992919061276f565b6040516020818303038152906040525b915050919050565b60008073ffffffffffffffffffffffffffffffffffffffff166117138361132c565b73ffffffffffffffffffffffffffffffffffffffff1614159050919050565b50505050565b50505050565b600073ffffffffffffffffffffffffffffffffffffffff168273ffffffffffffffffffffffffffffffffffffffff1614156117ae576040517f08c379a00000000000000000000000000000000000000000000000000000000081526004016117a590612994565b60405180910390fd5b6117b7816116f1565b156117f7576040517f08c379a00000000000000000000000000000000000000000000000000000000081526004016117ee906128d4565b60405180910390fd5b611805600083836001611732565b61180e816116f1565b1561184e576040517f08c379a0000000000000000000000000000000000000000000000000000000008152600401611845906128d4565b60405180910390fd5b6001600360008473ffffffffffffffffffffffffffffffffffffffff1673ffffffffffffffffffffffffffffffffffffffff16815260200190815260200160002060008282540192505081905550816002600083815260200190815260200160002060006101000a81548173ffffffffffffffffffffffffffffffffffffffff021916908373ffffffffffffffffffffffffffffffffffffffff160217905550808273ffffffffffffffffffffffffffffffffffffffff16600073ffffffffffffffffffffffffffffffffffffffff167fddf252ad1be2c89b69c2b068fc378daa952ba7f163c4a11628f55a4df523b3ef60405160405180910390a4611958600083836001611738565b5050565b611965826116f1565b6119a4576040517f08c379a000000000000000000000000000000000000000000000000000000000815260040161199b90612974565b60405180910390fd5b806006600084815260200190815260200160002090805190602001906119cb929190611ee5565b505050565b60006119f18473ffffffffffffffffffffffffffffffffffffffff16611c8b565b15611b5a578373ffffffffffffffffffffffffffffffffffffffff1663150b7a02611a1a610edc565b8786866040518563ffffffff1660e01b8152600401611a3c94939291906127c9565b602060405180830381600087803b158015611a5657600080fd5b505af1925050508015611a8757506040513d601f19601f82011682018060405250810190611a8491906122bd565b60015b611b0a573d8060008114611ab7576040519150601f19603f3d011682016040523d82523d6000602084013e611abc565b606091505b50600081511415611b02576040517f08c379a0000000000000000000000000000000000000000000000000000000008152600401611af990612894565b60405180910390fd5b805181602001fd5b63150b7a0260e01b7bffffffffffffffffffffffffffffffffffffffffffffffffffffffff1916817bffffffffffffffffffffffffffffffffffffffffffffffffffffffff191614915050611b5f565b600190505b949350505050565b606060006001611b7684611cae565b01905060008167ffffffffffffffff811115611bbb577f4e487b7100000000000000000000000000000000000000000000000000000000600052604160045260246000fd5b6040519080825280601f01601f191660200182016040528015611bed5781602001600182028036833780820191505090505b509050600082602001820190505b600115611c80578080600190039150507f3031323334353637383961626364656600000000000000000000000000000000600a86061a8153600a8581611c6a577f4e487b7100000000000000000000000000000000000000000000000000000000600052601260045260246000fd5b0494506000851415611c7b57611c80565b611bfb565b819350505050919050565b6000808273ffffffffffffffffffffffffffffffffffffffff163b119050919050565b600080600090507a184f03e93ff9f4daa797ed6e38ed64bf6a1f0100000000000000008310611d32577a184f03e93ff9f4daa797ed6e38ed64bf6a1f0100000000000000008381611d28577f4e487b7100000000000000000000000000000000000000000000000000000000600052601260045260246000fd5b0492506040810190505b6d04ee2d6d415b85acef81000000008310611d95576d04ee2d6d415b85acef81000000008381611d8b577f4e487b7100000000000000000000000000000000000000000000000000000000600052601260045260246000fd5b0492506020810190505b662386f26fc100008310611dea57662386f26fc100008381611de0577f4e487b7100000000000000000000000000000000000000000000000000000000600052601260045260246000fd5b0492506010810190505b6305f5e1008310611e39576305f5e1008381611e2f577f4e487b7100000000000000000000000000000000000000000000000000000000600052601260045260246000fd5b0492506008810190505b6127108310611e84576127108381611e7a577f4e487b7100000000000000000000000000000000000000000000000000000000600052601260045260246000fd5b0492506004810190505b60648310611ecd5760648381611ec3577f4e487b7100000000000000000000000000000000000000000000000000000000600052601260045260246000fd5b0492506002810190505b600a8310611edc576001810190505b80915050919050565b828054611ef190612c22565b90600052602060002090601f016020900481019282611f135760008555611f5a565b82601f10611f2c57805160ff1916838001178555611f5a565b82800160010185558215611f5a579182015b82811115611f59578251825591602001919060010190611f3e565b5b509050611f679190611f6b565b5090565b5b80821115611f84576000816000905550600101611f6c565b5090565b6000611f9b611f9684612a74565b612a4f565b905082815260208101848484011115611fb357600080fd5b611fbe848285612be0565b509392505050565b600081359050611fd5816130da565b92915050565b60008083601f840112611fed57600080fd5b8235905067ffffffffffffffff81111561200657600080fd5b60208301915083602082028301111561201e57600080fd5b9250929050565b600081359050612034816130f1565b92915050565b60008135905061204981613108565b92915050565b60008151905061205e81613108565b92915050565b600082601f83011261207557600080fd5b8135612085848260208601611f88565b91505092915050565b60008083601f8401126120a057600080fd5b8235905067ffffffffffffffff8111156120b957600080fd5b6020830191508360018202830111156120d157600080fd5b9250929050565b6000813590506120e78161311f565b92915050565b6000602082840312156120ff57600080fd5b600061210d84828501611fc6565b91505092915050565b6000806040838503121561212957600080fd5b600061213785828601611fc6565b925050602061214885828601611fc6565b9150509250929050565b60008060006060848603121561216757600080fd5b600061217586828701611fc6565b935050602061218686828701611fc6565b9250506040612197868287016120d8565b9150509250925092565b600080600080608085870312156121b757600080fd5b60006121c587828801611fc6565b94505060206121d687828801611fc6565b93505060406121e7878288016120d8565b925050606085013567ffffffffffffffff81111561220457600080fd5b61221087828801612064565b91505092959194509250565b6000806040838503121561222f57600080fd5b600061223d85828601611fc6565b925050602061224e85828601612025565b9150509250929050565b6000806040838503121561226b57600080fd5b600061227985828601611fc6565b925050602061228a858286016120d8565b9150509250929050565b6000602082840312156122a657600080fd5b60006122b48482850161203a565b91505092915050565b6000602082840312156122cf57600080fd5b60006122dd8482850161204f565b91505092915050565b600080600080604085870312156122fc57600080fd5b600085013567ffffffffffffffff81111561231657600080fd5b6123228782880161208e565b9450945050602085013567ffffffffffffffff81111561234157600080fd5b61234d87828801611fdb565b925092505092959194509250565b60006020828403121561236d57600080fd5b600061237b848285016120d8565b91505092915050565b600061239083836123d2565b60208301905092915050565b60006123a88383612738565b60208301905092915050565b6123bd81612b6c565b82525050565b6123cc81612b5a565b82525050565b6123db81612b5a565b82525050565b60006123ed8385612afa565b93506123f882612aa5565b8060005b858110156124315761240e8284612b43565b6124188882612384565b975061242383612ae0565b9250506001810190506123fc565b5085925050509392505050565b600061244982612abf565b6124538185612b05565b935061245e83612aaf565b8060005b8381101561248f578151612476888261239c565b975061248183612aed565b925050600181019050612462565b5085935050505092915050565b6124a581612b7e565b82525050565b60006124b682612aca565b6124c08185612b16565b93506124d0818560208601612bef565b6124d981612d5b565b840191505092915050565b60006124ef82612ad5565b6124f98185612b27565b9350612509818560208601612bef565b61251281612d5b565b840191505092915050565b600061252882612ad5565b6125328185612b38565b9350612542818560208601612bef565b80840191505092915050565b600061255b602d83612b27565b915061256682612d6c565b604082019050919050565b600061257e603283612b27565b915061258982612dbb565b604082019050919050565b60006125a1602583612b27565b91506125ac82612e0a565b604082019050919050565b60006125c4601c83612b27565b91506125cf82612e59565b602082019050919050565b60006125e7602483612b27565b91506125f282612e82565b604082019050919050565b600061260a601983612b27565b915061261582612ed1565b602082019050919050565b600061262d601b83612b27565b915061263882612efa565b602082019050919050565b6000612650602983612b27565b915061265b82612f23565b604082019050919050565b6000612673602e83612b27565b915061267e82612f72565b604082019050919050565b6000612696602083612b27565b91506126a182612fc1565b602082019050919050565b60006126b9601883612b27565b91506126c482612fea565b602082019050919050565b60006126dc602183612b27565b91506126e782613013565b604082019050919050565b60006126ff603d83612b27565b915061270a82613062565b604082019050919050565b6000612722601f83612b27565b915061272d826130b1565b602082019050919050565b61274181612bd6565b82525050565b61275081612bd6565b82525050565b60006127638284866123e1565b91508190509392505050565b600061277b828561251d565b9150612787828461251d565b91508190509392505050565b60006020820190506127a860008301846123c3565b92915050565b60006020820190506127c360008301846123b4565b92915050565b60006080820190506127de60008301876123c3565b6127eb60208301866123c3565b6127f86040830185612747565b818103606083015261280a81846124ab565b905095945050505050565b6000602082019050818103600083015261282f818461243e565b905092915050565b600060208201905061284c600083018461249c565b92915050565b6000602082019050818103600083015261286c81846124e4565b905092915050565b6000602082019050818103600083015261288d8161254e565b9050919050565b600060208201905081810360008301526128ad81612571565b9050919050565b600060208201905081810360008301526128cd81612594565b9050919050565b600060208201905081810360008301526128ed816125b7565b9050919050565b6000602082019050818103600083015261290d816125da565b9050919050565b6000602082019050818103600083015261292d816125fd565b9050919050565b6000602082019050818103600083015261294d81612620565b9050919050565b6000602082019050818103600083015261296d81612643565b9050919050565b6000602082019050818103600083015261298d81612666565b9050919050565b600060208201905081810360008301526129ad81612689565b9050919050565b600060208201905081810360008301526129cd816126ac565b9050919050565b600060208201905081810360008301526129ed816126cf565b9050919050565b60006020820190508181036000830152612a0d816126f2565b9050919050565b60006020820190508181036000830152612a2d81612715565b9050919050565b6000602082019050612a496000830184612747565b92915050565b6000612a59612a6a565b9050612a658282612c54565b919050565b6000604051905090565b600067ffffffffffffffff821115612a8f57612a8e612d2c565b5b612a9882612d5b565b9050602081019050919050565b6000819050919050565b6000819050602082019050919050565b600081519050919050565b600081519050919050565b600081519050919050565b6000602082019050919050565b6000602082019050919050565b600081905092915050565b600082825260208201905092915050565b600082825260208201905092915050565b600082825260208201905092915050565b600081905092915050565b6000612b526020840184611fc6565b905092915050565b6000612b6582612bb6565b9050919050565b6000612b7782612bb6565b9050919050565b60008115159050919050565b60007fffffffff0000000000000000000000000000000000000000000000000000000082169050919050565b600073ffffffffffffffffffffffffffffffffffffffff82169050919050565b6000819050919050565b82818337600083830152505050565b60005b83811015612c0d578082015181840152602081019050612bf2565b83811115612c1c576000848401525b50505050565b60006002820490506001821680612c3a57607f821691505b60208210811415612c4e57612c4d612cfd565b5b50919050565b612c5d82612d5b565b810181811067ffffffffffffffff82111715612c7c57612c7b612d2c565b5b80604052505050565b6000612c9082612bd6565b91507fffffffffffffffffffffffffffffffffffffffffffffffffffffffffffffffff821415612cc357612cc2612cce565b5b600182019050919050565b7f4e487b7100000000000000000000000000000000000000000000000000000000600052601160045260246000fd5b7f4e487b7100000000000000000000000000000000000000000000000000000000600052602260045260246000fd5b7f4e487b7100000000000000000000000000000000000000000000000000000000600052604160045260246000fd5b6000601f19601f8301169050919050565b7f4552433732313a2063616c6c6572206973206e6f7420746f6b656e206f776e6560008201527f72206f7220617070726f76656400000000000000000000000000000000000000602082015250565b7f4552433732313a207472616e7366657220746f206e6f6e20455243373231526560008201527f63656976657220696d706c656d656e7465720000000000000000000000000000602082015250565b7f4552433732313a207472616e736665722066726f6d20696e636f72726563742060008201527f6f776e6572000000000000000000000000000000000000000000000000000000602082015250565b7f4552433732313a20746f6b656e20616c7265616479206d696e74656400000000600082015250565b7f4552433732313a207472616e7366657220746f20746865207a65726f2061646460008201527f7265737300000000000000000000000000000000000000000000000000000000602082015250565b7f4552433732313a20617070726f766520746f2063616c6c657200000000000000600082015250565b7f546f6b656e20555249206d757374206e6f7420626520656d7074790000000000600082015250565b7f4552433732313a2061646472657373207a65726f206973206e6f74206120766160008201527f6c6964206f776e65720000000000000000000000000000000000000000000000602082015250565b7f45524337323155524953746f726167653a2055524920736574206f66206e6f6e60008201527f6578697374656e7420746f6b656e000000000000000000000000000000000000602082015250565b7f4552433732313a206d696e7420746f20746865207a65726f2061646472657373600082015250565b7f4552433732313a20696e76616c696420746f6b656e2049440000000000000000600082015250565b7f4552433732313a20617070726f76616c20746f2063757272656e74206f776e6560008201527f7200000000000000000000000000000000000000000000000000000000000000602082015250565b7f4552433732313a20617070726f76652063616c6c6572206973206e6f7420746f60008201527f6b656e206f776e6572206f7220617070726f76656420666f7220616c6c000000602082015250565b7f5265656e7472616e637947756172643a207265656e7472616e742063616c6c00600082015250565b6130e381612b5a565b81146130ee57600080fd5b50565b6130fa81612b7e565b811461310557600080fd5b50565b61311181612b8a565b811461311c57600080fd5b50565b61312881612bd6565b811461313357600080fd5b5056fea26469706673582212202940f6968dfc7f5c4c461f7bd1a751d9eb8fb564bbb43e416d1c70dce6215da964736f6c63430008040033",
  "linkReferences": {},
  "deployedLinkReferences": {}
}